:020000040800F2
:1000000000800120E14D0008314E0008314E00080B
:10001000314E0008314E0008314E0008000000004B
:10002000000000000000000000000000314E000849
:10003000314E000800000000314E00080F3B000860
:10004000314E0008314E0008314E0008314E000894
:10005000314E0008314E0008053C00080B3C0008FA
:10006000113C0008173C00081D3C0008314E0008F8
:10007000314E0008314E0008314E0008314E000864
:10008000314E0008314E0008314E000800000000DB
:10009000000000000000000000000000233C0008F9
:1000A000CD37000845370008E137000869370008F8
:1000B0007D37000891370008A5370008791500083A
:1000C00085150008911500089D150008314E00089F
:1000D000314E0008214300083943000800000000A9
:1000E0004B3C0008314E0008314E00080000000073
:1000F000000000000000000000000000314E000879
:1001000000000000314E0008B9370008314E0008E9
:1001100000000000000000000000000000000000DF
:10012000314E0008314E0008314E0008314E0008B3
:10013000314E000800000000000000000000000038
:10014000000000000000000000000000314E000828
:10015000314E0008314E0008314E0008554300086A
:10016000A9150008B51500080000000000000000F7
:10017000000000000000000000000000000000007F
:1001800000000000314E00080000000000000000E8
:04019000314E0008E4
:1001A000034613F8012B002AFBD1181A01387047B7
:1001B00001F0FF01102A2BDB10F0070F08D010F818
:1001C000013B013A8B422DD010F0070F42B3F6D11C
:1001D000F0B441EA012141EA014122F007047FF035
:1001E00000070023F0E80256083C85EA010586EA8C
:1001F000010685FA47F5A3FA87F586FA47F6A5FAC8
:1002000087F68EB9EED1F0BC01F0FF0102F00702D3
:1002100032B110F8013B013A83EA010313B1F8D17E
:100220000020704701387047002D06BF354603385F
:10023000073815F0010F07D1013015F4807F02BF98
:10024000013015F4C03F0130F0BC0138704700BFE9
:1002500081F0004102E000BF83F0004330B54FEA77
:1002600041044FEA430594EA050F08BF90EA020FE4
:100270001FBF54EA000C55EA020C7FEA645C7FEA77
:10028000655C00F0E2804FEA5454D4EB5555B8BF9A
:100290006D420CDD2C4480EA020281EA030382EA0B
:1002A000000083EA010180EA020281EA0303362D9D
:1002B00088BF30BD11F0004F4FEA01314FF4801C70
:1002C0004CEA113102D0404261EB410113F0004F82
:1002D0004FEA03334CEA133302D0524263EB430339
:1002E00094EA050F00F0A780A4F10104D5F1200ED7
:1002F0000DDB02FA0EFC22FA05F2801841F1000132
:1003000003FA0EF2801843FA05F359410EE0A5F105
:1003100020050EF1200E012A03FA0EFC28BF4CF036
:10032000020C43FA05F3C01851EBE37101F00045EC
:1003300007D54FF0000EDCF1000C7EEB00006EEBF9
:100340000101B1F5801F1BD3B1F5001F0CD3490883
:100350005FEA30004FEA3C0C04F101044FEA4452DA
:1003600012F5800F80F09A80BCF1004F08BF5FEA61
:10037000500C50F1000041EB045141EA050130BD41
:100380005FEA4C0C404141EB0101013C28BFB1F553
:10039000801FE9D291F0000F04BF01460020B1FA9E
:1003A00081F308BF2033A3F10B03B3F120020CDA71
:1003B0000C3208DD02F1140CC2F10C0201FA0CF04F
:1003C00021FA02F10CE002F11402D8BFC2F1200CB4
:1003D00001FA02F120FA0CFCDCBF41EA0C0190406A
:1003E000E41AA2BF01EB0451294330BD6FEA0404B3
:1003F0001F3C1CDA0C340EDC04F11404C4F120029E
:1004000020FA04F001FA02F340EA030021FA04F3AF
:1004100045EA030130BDC4F10C04C4F1200220FA06
:1004200002F001FA04F340EA0300294630BD21FA44
:1004300004F0294630BD94F0000F83F4801306BF0A
:1004400081F480110134013D4EE77FEA645C18BFFE
:100450007FEA655C29D094EA050F08BF90EA020F95
:1004600005D054EA000C04BF1946104630BD91EA8D
:10047000030F1EBF0021002030BD5FEA545C05D190
:100480004000494128BF41F0004130BD14F58004CF
:100490003CBF01F5801130BD01F0004545F0FE4143
:1004A00041F470014FF0000030BD7FEA645C1ABF78
:1004B000194610467FEA655C1CBF0B46024650EAAF
:1004C000013406BF52EA033591EA030F41F40021DB
:1004D00030BD00BF90F0000F04BF0021704730B561
:1004E0004FF4806404F132044FF000054FF0000136
:1004F00050E700BF90F0000F04BF0021704730B5F7
:100500004FF4806404F1320410F0004548BF4042CB
:100510004FF000013EE700BF42004FEAE2014FEA20
:1005200031014FEA02701FBF12F07F4393F07F4FFB
:1005300081F06051704732F07F4208BF704793F0FE
:100540007F4F04BF41F40021704730B54FF4607411
:1005500001F0004521F000411CE700BF50EA010214
:1005600008BF704730B54FF000050AE050EA0102BD
:1005700008BF704730B511F0004502D5404261EB2D
:1005800041014FF4806404F132045FEA915C3FF46E
:10059000D8AE4FF003025FEADC0C18BF03325FEA0B
:1005A000DC0C18BF033202EBDC02C2F1200300FABC
:1005B00003FC20FA02F001FA03FE40EA0E0021FAE1
:1005C00002F11444BDE600BF70B54FF0FF0C4CF4CF
:1005D000E06C1CEA11541DBF1CEA135594EA0C0F81
:1005E00095EA0C0F00F0DEF82C4481EA030621EABC
:1005F0004C5123EA4C5350EA013518BF52EA0335F7
:1006000041F4801143F4801338D0A0FB02CE4FF0A8
:100610000005E1FB02E506F00042E0FB03E54FF0D8
:100620000006E1FB03569CF0000F18BF4EF0010ED0
:10063000A4F1FF04B6F5007F64F5407404D25FEACC
:100640004E0E6D4146EB060642EAC62141EA55517F
:100650004FEAC52040EA5E504FEACE2EB4F1FD0CC1
:1006600088BFBCF5E06F1ED8BEF1004F08BF5FEA3F
:10067000500E50F1000041EB045170BD06F00046F1
:1006800046EA010140EA020081EA0301B4EB5C049E
:10069000C2BFD4EB0C0541EA045170BD41F4801196
:1006A0004FF0000E013C00F3AB8014F1360FDEBFBB
:1006B000002001F0004170BDC4F10004203C35DA97
:1006C0000C341BDC04F11404C4F1200500FA05F31A
:1006D00020FA04F001FA05F240EA020001F00042BB
:1006E00021F0004110EBD37021FA04F642EB060131
:1006F0005EEA430E08BF20EAD37070BDC4F10C045B
:10070000C4F1200500FA04F320FA05F001FA04F21E
:1007100040EA020001F0004110EBD37041F100010A
:100720005EEA430E08BF20EAD37070BDC4F1200515
:1007300000FA05F24EEA020E20FA04F301FA05F27D
:1007400043EA020321FA04F001F0004121FA04F225
:1007500020EA020000EBD3705EEA430E08BF20EAF5
:10076000D37070BD94F0000F0FD101F0004640002F
:1007700041EB010111F4801F08BF013CF7D041EAB1
:10078000060195F0000F18BF704703F000465200B5
:1007900043EB030313F4801F08BF013DF7D043EA86
:1007A0000603704794EA0C0F0CEA135518BF95EA3C
:1007B0000C0F0CD050EA410618BF52EA4306D1D1C3
:1007C00081EA030101F000414FF0000070BD50EAE2
:1007D000410606BF1046194652EA430619D094EA6C
:1007E0000C0F02D150EA013613D195EA0C0F05D156
:1007F00052EA03361CBF104619460AD181EA0301AA
:1008000001F0004141F0FE4141F470014FF0000061
:1008100070BD41F0FE4141F4780170BD70B54FF0FC
:10082000FF0C4CF4E06C1CEA11541DBF1CEA13557C
:1008300094EA0C0F95EA0C0F00F0A7F8A4EB05045E
:1008400081EA030E52EA03354FEA013100F0888055
:100850004FEA03334FF0805545EA131343EA12631E
:100860004FEA022245EA111545EA10654FEA0026D3
:100870000EF000419D4208BF964244F1FD0404F58C
:10088000407402D25B084FEA3202B61A65EB0305E8
:100890005B084FEA32024FF480104FF4002CB6EBA5
:1008A000020E75EB030E22BFB61A754640EA0C0025
:1008B0005B084FEA3202B6EB020E75EB030E22BF65
:1008C000B61A754640EA5C005B084FEA3202B6EBA6
:1008D000020E75EB030E22BFB61A754640EA9C0065
:1008E0005B084FEA3202B6EB020E75EB030E22BF35
:1008F000B61A754640EADC0055EA060E18D04FEAF3
:10090000051545EA16754FEA06164FEAC30343EA92
:1009100052734FEAC2025FEA1C1CC0D111F4801F5F
:100920000BD141EA00014FF000004FF0004CB6E758
:1009300011F4801F04BF01430020B4F1FD0C88BFF7
:10094000BCF5E06F3FF6AFAEB5EB030C04BFB6EB02
:10095000020C5FEA500C50F1000041EB045170BDF5
:100960000EF0004E4EEA113114EB5C04C2BFD4EB22
:100970000C0541EA045170BD41F480114FF0000EA6
:10098000013C90E645EA060E8DE60CEA135594EA22
:100990000C0F08BF95EA0C0F3FF43BAF94EA0C0F25
:1009A0000AD150EA01347FF434AF95EA0C0F7FF49A
:1009B00025AF104619462CE795EA0C0F06D152EAEE
:1009C00003353FF4FDAE1046194622E750EA4106D2
:1009D00018BF52EA43067FF4C5AE50EA41047FF4E3
:1009E0000DAF52EA43057FF4EBAE12E74FF0FF3C48
:1009F00006E000BF4FF0010C02E000BF4FF0010C19
:100A00004DF804CD4FEA410C7FEA6C5C4FEA430C91
:100A100018BF7FEA6C5C1BD001B050EA410C0CBFE0
:100A200052EA430C91EA030F02BF90EA020F002042
:100A3000704710F1000F91EA030F58BF994208BFA9
:100A400090422CBFD8176FEAE37040F00100704766
:100A50004FEA410C7FEA6C5C02D150EA013C07D1BD
:100A60004FEA430C7FEA6C5CD6D152EA033CD3D008
:100A70005DF8040B704700BF8446104662468C4602
:100A80001946634600E000BF01B5FFF7B7FF002835
:100A900048BF10F1000F01BD4DF808EDFFF7F4FF5E
:100AA0000CBF012000205DF808FB00BF4DF808EDE9
:100AB000FFF7EAFF34BF012000205DF808FB00BF0C
:100AC0004DF808EDFFF7E0FF94BF012000205DF82E
:100AD00008FB00BF4DF808EDFFF7CEFF94BF0120E3
:100AE00000205DF808FB00BF4DF808EDFFF7C4FFDC
:100AF00034BF012000205DF808FB00BF4FEA41022F
:100B000012F5001215D211D56FF47873B3EB62525F
:100B100012D94FEAC12343F0004343EA505311F086
:100B2000004F23FA02F018BF404270474FF0000018
:100B3000704750EA013005D111F0004008BF6FF056
:100B4000004070474FF00000704700BF4A0011D2CC
:100B500012F5001211D20DD56FF47873B3EB625217
:100B60000ED44FEAC12343F0004343EA505323FA23
:100B700002F070474FF00000704750EA013002D198
:100B80004FF0FF3070474FF00000704753B94AB93B
:100B9000002908BF00281CBF4FF0FF314FF0FF3085
:100BA00000F00CB8ADF1080C6DE904CE04F0EAFEDB
:100BB000DDF804E0DDE9022304B07047704700BFB0
:100BC00010B5054C237833B9044B13B10448AFF387
:100BD00000800123237010BD780000200000000079
:100BE000845C000808B5034B1BB103490348AFF30D
:100BF000008008BD000000007C000020845C00082C
:100C0000B4EE400AF1EE10FA0DD6DFED087AB0EE40
:100C1000C07AB4EE677ADFED067AF1EE10FAC8BF5B
:100C2000B0EE670A70479FED020A7047FFFF7F7FB3
:100C300000000000F8B507460D460A260024384695
:100C400004F028F9013E0444F9D107EE904AF8EE89
:100C5000E77AB2EE047A87EE870ADFED057A20EEB6
:100C6000270A1DB1F7EE087A20EE270AF8BD00BF6B
:100C70006740533A08B50021C220FFF7DBFFDFEDE4
:100C8000047ABDE8084020EE270AFFF7B9BF00BF8D
:100C90000000C84208B50021C120FFF7CBFF9FED3F
:100CA000127AB4EEC70AF1EE10FAF0EE407AB1EE25
:100CB0000C0A0DD837EE677ADFED0C7AC7EE276A9B
:100CC000F0EE087AA6EEE70ABDE80840FFF798BF05
:100CD00077EEC77ADFED066A87EEA67AF0EE027A43
:100CE000A7EE270AF0E700BF8FC2F53F3D0A573E47
:100CF000EC51383E08B50021C020FFF79BFF144B94
:100D0000DFED146AD3ED007AB3EE097A77EEC77A95
:100D1000B7EE007AA7EEA67ABDE80840C0EE077AE3
:100D20009FED0D7A9FED0D0A27EE877A27EE800A58
:100D300027EE277A27EEC00AA7EE270A9FED087A4A
:100D4000A7EE870AF6EE007A20EE270AFFF758BFD3
:100D5000000000200AD7A33C856B054329DC7F43B4
:100D6000F658564408B51649164803F0DDFD164BF3
:100D7000144893ED000A022103F0BEFE1349114806
:100D800003F0D2FD124B0F4893ED000A022103F04D
:100D9000B3FE10490B4803F0C7FD0F4B094893ED14
:100DA000000A022103F0A8FE0C49064803F0BCFD2E
:100DB0000B4B044819690A22BDE8084003F010BE35
:100DC0009C5C00088C050020EC000020A85C00085A
:100DD000E8000020B05C0008E4000020B95C0008D6
:100DE000B40000202DE9F04F4B4B4C4E1868EBB08F
:100DF000FFF792FB41EC100B01210FAA084603F00C
:100E0000BFFE474B1868FFF787FB12AC41EC100B95
:100E100022460221012003F0B3FE424B1868FFF77F
:100E20007BFB15AD41EC100B01212A46084603F06F
:100E3000A7FE3278002A65D0B069FFF76DFB41EC60
:100E4000100B012118AA084603F09AFEF069FFF77B
:100E500063FB1BAF41EC100B01213A46084603F03F
:100E60008FFE306AFFF758FB0DF1780841EC100B4C
:100E700042460321012003F083FE706AFFF74CFB1A
:100E80000DF1840941EC100B01214A46084603F09C
:100E900077FEB06AFFF740FB0DF1900A41EC100BB2
:100EA00052460221012003F06BFEF06AFFF734FB8B
:100EB0000DF19C0B41EC100B5A460221012003F06E
:100EC0005FFECDE90BABCDE9098918AB0897079315
:100ED0007269069232690592F2680492B2680392CE
:100EE0007368114A0094CDE901534FF480710FAB40
:100EF0002AA804F0EBF82AA90C4803F02FFD6BB0E8
:100F0000BDE8F08FCDE90045094A0FAB4FF4807181
:100F10002AA804F0DBF8EEE7EC000020B400002083
:100F2000E8000020E4000020C25C0008FC00002073
:100F30004E5D000808B50D4806224FF4E13103F07C
:100F400071FC0B4806224FF4165103F06BFC4FF472
:100F5000E1310848062203F065FC0C2003F07CFF19
:100F6000BDE808400449014803F0F8BC8C050020A6
:100F700014020020FC000020DB5D000813B54FF0D8
:100F8000FF342346009409220A21064803F06EFB31
:100F90000094234626222721034803F067FB02B072
:100FA00010BD00BF14020020FC00002002490348CD
:100FB000092203F0CFBA00BF3C5E000814020020F3
:100FC00010B5404C404803F04BFA00B910BD3E4804
:100FD00003F078FC2268C0B20AB9FF28F2D1511C94
:100FE0003A4B21601A299854ECD1002222605A7899
:100FF000862AE7D136499FED376ADFED376A01224D
:101000000A705A8852BA92B24A609A8852BA92B218
:101010008A60DA8852BA92B2CA601A8952BA92B217
:101020000A619A7A4A61B3F80B2052BA92B2A2F5D9
:10103000FA7207EE902AB3F80D2052BA92B207EE78
:10104000102AB3F80F20B8EEC77A52BA92B281EDE7
:10105000077A07EE102AB3F81120B8EEC77A52BA11
:1010600027EE067A92B281ED087A07EE102AB3F8DD
:101070001320B3F81530B8EEC77A52BA27EE267AA5
:1010800092B2F8EEE77A81ED097A07EE102A67EE60
:10109000A67AB8EEC77ADFED116AC1ED067A27EEBF
:1010A000267A5BBA9BB281ED0A7A07EE103AB8EE67
:1010B000C77A0B4B27EE267AC3ED007A81ED0B7AC7
:1010C00080E700BF94000020140200209800002058
:1010D000B40000206F12833ACDCCCC3D0AD7233C1C
:1010E0000000002010B503F0EBFE0446FFF768FF98
:1010F000164A1368E31AB3F57A7F02D31460FFF738
:1011000055FF134A1368E31AB3F5FA7F0FD314603F
:10111000FFF7B0FD0F4B83ED000AFFF7BBFD0E4B51
:1011200083ED000AFFF7E6FD0C4B83ED000A0C4A45
:101130001368E31AB3F5FA6F06D31460FFF712FED3
:10114000BDE81040FFF74EBE10BD00BFF00000200C
:10115000F8000020EC000020E8000020E40000205F
:10116000F400002000207047028BC08A101A7047DC
:10117000C28A018B914288BF0169034683BF885CA4
:101180000132DA824FF0FF307047028BC38A9A42F5
:1011900086BF0269D05C4FF0FF307047836810B59E
:1011A000044613B1032201469847204610BD0000B3
:1011B00070B54FF47A730E460021C0E9011303465F
:1011C00015462B4A43F8C42B0446C0F8C4109C2291
:1011D000C3E90111C0E93411C0E93611C0F8E010CB
:1011E000283003F0E4FFF3B2332B19D8214A52F828
:1011F000233006F4E0661E43EBB2332BC4F8846060
:1012000022D81C4A52F8233005F4E0651D43002320
:10121000C4F88850E36123842361A382204670BD13
:1012200006F0C002C02A0CD1CF2B0AD8124B06F010
:101230003F0206F4E06653F822200E4B53F82230AA
:10124000D9E74FF0FF36D7E705F0C002C02A0CD12E
:10125000CF2B0AD8084B05F03F0205F4E06553F8A0
:101260002220044B53F82230D0E74FF0FF35CEE771
:10127000505E0008B06000087060000838B5044691
:10128000283000F0A9F8E06918B103F033FE00231C
:10129000E36120690025258410B103F02BFE256150
:1012A000A58238BD38B50546074B45F8D43B044602
:1012B000FFF7E4FF2846FFF771FF04F1C400FFF7D2
:1012C0006DFF204638BD00BF505E0008B1F5806F4D
:1012D00070B505460C4610D8038C99420AD92029CE
:1012E0000E4638BF2026C069314603F0B9FE18B15A
:1012F000E8612E84204670BDFEE70024FAE713B5AE
:1013000090F824308DF8071004467BB1418C0131F0
:10131000FFF7DCFF40B1638CE2699DF80710D15400
:10132000638C01336384012002B010BD01220DF1F2
:101330000701283000F0A0F8B0FA80F04009F3E788
:1013400070B590F8243004460E46154693B1418C92
:101350001144FFF7BBFF10B90025284670BD638C10
:10136000E0692A461844314603F076FF638C2B442B
:101370006384F2E792B2283000F07EF80028EBD1C7
:10138000EBE70346006918B19A8A002103F00FBF0A
:1013900070470346C06918B11A8C002103F007BFDB
:1013A000704738B504460025C5820583FFF7E9FF7D
:1013B00065842046FFF7EDFF38BD000002480F228C
:1013C0000E21FFF7F5BE00BF2C0300200148FFF7F8
:1013D00069BF00BF2C03002010B5044690F96400DB
:1013E00000F0BEFB94F9650000F0BAFB201D00F090
:1013F00062FC206E032102F0C5FCE06D032102F0C7
:10140000C1FC2368184A93420DD1184B1A6A42F462
:1014100000121A621A6A22F400121A621A6C22F47A
:1014200000121A6410BD124A93420CD10F4B1A6A73
:1014300042F480021A621A6A22F480021A621A6C5A
:1014400022F48002EDE70B4A9342EBD1074B1A6A74
:1014500042F400021A621A6A22F400021A621A6C3A
:1014600022F40002DDE700BF0054004000380240D3
:1014700000580040005C0040202A30B514D80023FA
:101480009CB2A24207D890F894301344DBB280F8A3
:101490009430002030BD90F89440CD5C1C4404444E
:1014A000013384F87450EBE70120F3E770B590F84E
:1014B0009130012B04460D46A0F1040609D1436E7C
:1014C0003BB1836E30469847022384F89130002365
:1014D00063668DB9E36E84F891501BB184F8905027
:1014E0003046984794F8902004F17001204620235C
:1014F000BDE8704000F0F8BB00230122636684F869
:101500009120616E7431314420460423BDE870405F
:1015100000F025BC10B590F89130012B044604D1A1
:10152000436E13B1836E04389847022384F89130D8
:10153000002363662046BDE8104000F04BBC436EBC
:101540001F2BDEBF436E0133436690F89130012BB1
:10155000DAB205D1416E70310423014400F0FFBBC3
:101560007047002380F89030704790F892300BB9A4
:1015700000F030BC70470000014B186800F0AABDB5
:1015800010040020014B186801F0F6B91004002087
:10159000014B586800F09EBD10040020014B5868B4
:1015A00001F0EAB910040020014B986800F092BDE8
:1015B00010040020014B986801F0DEB910040020EF
:1015C0007047000038B50E4B1A784FF47A73B3FBAE
:1015D000F2F30C4A05461068B0FBF3F000F0D2FAC3
:1015E000044658B90F2D09D8024629464FF0FF305E
:1015F00000F076FA044B20461D6038BD0120FCE760
:1016000004000020180000200800002008B50B4B43
:101610001A6842F400721A601A6842F480621A6012
:101620001A6842F480721A60032000F047FA002022
:10163000FFF7C8FFFFF7C4FF002008BD003C0240D1
:10164000034A044B11681B780B441360704700BFBA
:101650001C04002004000020014B1868704700BFE4
:101660001C04002038B50446002800F09B80056C5F
:1016700025B902F077F9656484F83C50236CDB06E9
:1016800000F18E80236C23F4885323F0020343F08F
:1016900002032364444B5A6822F440325A605A6869
:1016A00061680A435A60236821695A6822F480728B
:1016B0005A605A6842EA01225A605A68A16822F0C8
:1016C00040725A605A680A435A609A68E16822F484
:1016D00000629A609A680A439A603449A26A8A4210
:1016E00052D0996821F07061996099680A439A60B4
:1016F0009A68E16A22F040529A609A680A439A60B6
:101700009A6822F002029A609A68217E42EA4102B7
:101710009A6094F82020002A3ED05A68616A42F408
:1017200000625A605A6822F460425A605A6801396D
:1017300042EA41325A60DA6AE16922F47002DA62FE
:10174000DA6A013942EA0152DA629A6822F40072D6
:101750009A609A6894F8301042EA41229A609A6836
:10176000616922F480629A609A68002042EA8122CC
:101770009A606064236C23F0030343F00103236445
:10178000002384F83C3038BD9A6822F070629A6079
:101790009A6822F04052B2E75A6822F40062C9E720
:1017A0000120EDE70120EEE7002301400100000FDA
:1017B00038B50446A0B1036C43F002030364036828
:1017C0009A6822F001029A609D6815F0010503D124
:1017D00002F0ECF865642564002084F83C0038BD14
:1017E0000120FCE782B00023019390F83C30012BEC
:1017F00056D0012380F83C3003689A68D1070BD596
:101800009A68D2071AD4036C43F010030364436C44
:1018100043F00103436440E09A68224942F0010228
:101820009A60214A1268B2FBF1F202EB4202019285
:10183000019A002AE4D0019A013AF8E7026C22F4F6
:10184000E06222F0010242F4807202645A6851059B
:1018500041BF026C22F4405242F480520264026C96
:1018600012F480521CBF426C22F006024264002235
:1018700080F83C206FF022021A600C4A5268D206AF
:1018800008D19A6812F0405F02BF9A6842F0804225
:101890009A6002E0064A9342F3D0002002B07047FB
:1018A0000220FBE740420F00180000200023014007
:1018B0000020014090F83C30012B14D003689A6856
:1018C00022F001029A609B68DB0707D4036C23F4C3
:1018D000885323F0010343F001030364002380F8DD
:1018E0003C30184670470220704703689A685205DA
:1018F00070B504460D460BD59B68DE0508D5036C14
:1019000043F020030364002380F83C30012070BDC5
:10191000FFF7A2FE064623681A6891070CD56FF000
:1019200012021A60226C42F4007222649A6812F069
:10193000405F17D00020EAE7681CEDD065B9236846
:101940001B6813F00203E6D1226C84F83C3042F0AD
:10195000040222640320DAE7FFF77EFE801BA84220
:10196000EDD8D8E7227E002AE4D1DA6A12F4700FAB
:1019700002D09B685A05DDD4236C23F48073236462
:10198000236CDB04D6D4236C43F001032364D1E73A
:101990000368D86C70470000F7B50023019390F8F6
:1019A0003C30012B05467CD0012380F83C30086890
:1019B0002B688E68092884B230D904EB4402DF68B2
:1019C0001E3A4FF0070C0CFA02FC27EA0C07DF6006
:1019D000DF6806FA02F23A43DA604968062901EB49
:1019E00081022AD8596B053A1F26964021EA060142
:1019F0005963596B04FA02F20A435A632A4A934222
:101A000007D1122834D1D2F8043343F48003C2F84A
:101A10000433002085F83C0003B0F0BD1A6900EBE8
:101A2000400C072707FA0CF722EA07021A611A6925
:101A300006FA0CF616431E61CFE70C294FF01F0182
:101A40000BD81E6B233A914026EA01011963196BEA
:101A500004FA02F20A431A63D0E7DE6A413A91407F
:101A600026EA0101D962D96A94400C43DC62C5E7D9
:101A7000A0F11003012BCCD80C4A5368102843F472
:101A800000035360C5D10A4B0A4A1B68B3FBF2F34B
:101A90000A2253430193019B002BBAD0019B013BC7
:101AA000F8E70220B8E700BF002001400023014012
:101AB0001800002040420F00006C70470749CA68B8
:101AC00022F4E0620302120403F4E063120C1343F5
:101AD00043F0BF6343F40033CB60704700ED00E098
:101AE000164B30B5DC68C4F30224C4F10703251D8E
:101AF000042B28BF0423062D4FF0FF358CBF033C79
:101B0000002405FA03F321EA0303A54022EA0502B3
:101B1000A340002843EA0203ACBF00F16040084A3A
:101B20004FEA0313B8BF00F00F00DBB2AABF00F505
:101B30006140135480F8003330BD00BF00ED00E079
:101B400014ED00E0002807DB044A4109012300F0FE
:101B50001F00834042F82130704700BF00E100E0E1
:101B600000280CDB4309064900F01F002033012246
:101B7000824041F82320BFF34F8FBFF36F8F704730
:101B800000E100E00138B0F1807F0BD24FF0E0239C
:101B9000054A5861F02182F823100020072298613D
:101BA0001A6170470120704700ED00E0002808DB53
:101BB0004309044900F01F0001226033824041F8CC
:101BC0002320704700E100E0704708B5FFF7FCFFF5
:101BD00008BD704710B5044650B1437903F0FF02C9
:101BE00013B90271FFF7F5FF01236371002010BDE7
:101BF0000120FCE770B50446866DFFF72DFD94F8D3
:101C00003530022B054606D0802363650120002372
:101C100084F8343070BD23681A6822F016021A6006
:101C20005A6922F080025A61226C0AB9A26C1AB178
:101C30001A6822F008021A601A6822F001021A607B
:101C40002368186810F0010007D1E26D3F2393402C
:101C5000B360012384F83530D9E7FFF7FDFC401B62
:101C60000528EDD920230320636584F83500CEE7ED
:101C700090F83530022B03D0802343650120704754
:101C80000268052380F83530136823F001031360E0
:101C90000020704790F8350070470000044A5169F1
:101CA000014208B502D0506101F096FF08BD00BFA7
:101CB000003C0140704710B5044698B102682423E7
:101CC00080F83D30136823F001031360FFF7F2FF43
:101CD0000020206484F83C0084F83D00206384F8F0
:101CE0003E0010BD0120FCE737B5044690F83D00EA
:101CF00000F02800282830D100292CD0002A2AD032
:101D000094F83C00012828D025682868C0075EBFE9
:101D1000286840F001002860286820F400602860EE
:101D2000292084F83D00202084F83E000020206413
:101D30006285628DE36201906B690193AB690193E7
:101D400084F83C00019B6B68616243F4E063228588
:101D50006B6003B030BD0120FBE70220F9E737B527
:101D6000044690F83D0000F02800282830D10029D2
:101D70002CD0002A2AD094F83C00012828D02568CD
:101D80002868C0075EBF286840F001002860286806
:101D900020F4006028602A2084F83D00202084F888
:101DA0003E00002020646285628DE36201906B69D1
:101DB0000193AB69019384F83C00019B6B686162FD
:101DC00043F4E06322856B6003B030BD0120FBE784
:101DD0000220F9E790F83D30202B14D1282380F819
:101DE0003D3003681A68D2075EBF1A6842F00102EC
:101DF0001A601A6842F480621A605A6842F44072AB
:101E00005A60002070470220704770477047704743
:101E100090F83D2008B5036DD2B283B9C36C026857
:101E2000012B836C05D1DBB21361036D02330365B3
:101E300008BDC3F307231361036D0133F7E7036D97
:101E4000012B03D1836C0268DBB2F4E7036D022B34
:101E50002FD1222A05D10268136843F480731360DE
:101E6000EAE7438D9BB263B1212A0AD1436A026833
:101E700013F8011B11614362438D013B9BB2438503
:101E8000D6E7438D9BB2002BD2D1212AD0D1026854
:101E9000516821F4E0615160116841F400711160F2
:101EA0002022036380F83D2080F83E30FFF7AFFF2B
:101EB000BEE703685A69120644BF00221A61B7E7F9
:101EC0007047704737B5002301932D4B806B1B681B
:101ED00090F83D2046F2A811B3FBF1F323214B43C8
:101EE00001930368D2B2019941BB016C41F020011A
:101EF0000164446B0CB10021E163816B09B10025E1
:101F0000CD631D6825F480651D600025458504B1FD
:101F1000256501B10D65196821F00101196090F87E
:101F20003D10602911D1202380F83D30002380F836
:101F30003E300364FFF7C5FF03B030BD019901399E
:101F4000019119688905CED4D3E702F02802282A26
:101F50000ED1196841F001011960196841F48061DE
:101F600019600023036380F83D20FFF7FEFAE3E7E2
:101F7000202380F83D30002380F83E30F5E700BF95
:101F80001800002010B590F83D2090F83E30102B3E
:101F9000D9B204460368D2B201D0402913D1222A13
:101FA00011D1196821F400611960596811F40061B8
:101FB00006D1602A1EBF202284F83D2084F83E10FE
:101FC0000022226307E002F028012829EDD1002237
:101FD000226384F83D105A6812F400624FD05A68A8
:101FE000606B22F400625A6090F83530012B374B59
:101FF0002BD00365FFF73CFE50B12268606B13687D
:1020000023F001031360202384F83D30036D9847CB
:10201000236C19071FBF2268536823F4E0635360E1
:1020200094F83D30226C5207DBB20DD5282B0BD132
:10203000274BE362202200232363204684F83D20BF
:1020400084F83E30FFF766FA10BDA06B0365FFF71A
:102050000FFE0028DCD023685A69510605D51A699D
:10206000636A1A70636A013363622268A06B136843
:1020700023F001031360202384F83D30C6E794F871
:102080003D10602915D1202184F83D1022645A6941
:10209000520605D51A69636A1A70636A013363626E
:1020A0002268136823F0010313602046FFF709FF3D
:1020B000AEE75A69500605D51A69636A1A70636AF1
:1020C000013363622046FFF750FAA1E7C51E0008FE
:1020D0000000FFFFF0B5036804465A68C66A90F82E
:1020E0003E0094F83D1010288FB0C5B2C9B202D09E
:1020F000402D40F0DD829F69586910F0010F07D133
:10210000B6F52A0F02D0B6F12A4F51D10FB0F0BD6B
:1021100096054DD5E26AB2F52A0F0CD10122E26292
:1021200094F83E20402A11D1226D52B9626C02F01F
:10213000FE021A61EAE7E26AB2F12A4FF0D1082200
:10214000EDE7626C42F00102D2B2F2E72269B2F529
:10215000804F1AD194F83D20212A626C11D102F0EF
:10216000FE021A61626B0AB1D26B2AB9A26B002A15
:10217000CCD0D26B002AC9D05A6842F400625A60AF
:10218000C4E742F00102D2B2EBE7226D32B9626CD1
:10219000D21102F0060242F0F002CAE7226D012AD3
:1021A000B4D1626CD21102F0060242F0F102C0E733
:1021B000060703D5960501D5626CE4E7860740F172
:1021C000E880960540F1E58094F83E10E26A256BC0
:1021D00094F83D002228C9B240F0D380206D40B968
:1021E000402906D101905A6901929B690193019B94
:1021F0008CE7216D89B92069B0F5404F0DD102916E
:102200005A6902929A690292029A1A6842F480729A
:102210001A60236D0133236578E7618D89B251B966
:1022200003915A6903929A690392039A1A6842F4D5
:1022300000721A6019E0618D89B2012949D112F545
:10224000803F1BD11A6822F480621A605A6812F427
:1022500000620CD01A6822F480621A600022049294
:102260005A6904929B690493049B0023D3E7059267
:102270005A6905929A690592059AD7E7082A1CD0EF
:10228000202A1AD0122D0DD1012A16D11A6822F453
:1022900080621A60002206925A6906929B69069330
:1022A000069BE2E7102AF1D8824941FA02F2D707E9
:1022B000ECD41A6842F48062EBE71A6822F4806278
:1022C0001A60002207925A6907929A690792079A40
:1022D000ACE7618D89B2022930D1102A03D8764942
:1022E000D140CE0715D4196821F4806119601968AE
:1022F00041F40061196059680D0514D5202A1AD8D7
:10230000072A0AD8012A0ED15A6842F480525A602C
:1023100009E0196841F48061ECE7A2F10801674A1D
:10232000CA40D007F0D4002208925A6908929B69EB
:102330000893089B99E712F5803FE4E7196841F498
:10234000806119605968090510D5202A16D8072A16
:1023500006D8012A0AD15A6842F480525A6005E030
:10236000A2F10801554ACA40D207F4D400220992CA
:102370005A6909929B690993099B76E712F5803F98
:10238000E8E700220A925A690A929B690A930A9B1B
:10239000BCE67F0740F194805E6836053FF5B6AE37
:1023A000070600F004063ED550053CD5002E3DD171
:1023B00094F83D20258D94F83E10E06AD2B2C9B25F
:1023C000C5B9212A18D1082858D0202856D010F590
:1023D000803F53D05A6822F4E0625A60112323638D
:1023E000002384F83E30202384F83D302046FFF758
:1023F0000CFD8BE6212A05D040297FF487AE222AE6
:102400007FF484AE628D92B21AB95A6822F4806267
:10241000B5E694F83E20402A16D120460FB0BDE81C
:10242000F040FFF7F5BC002E3FF470AE97057FF546
:102430006DAE212939D1E16A94F83D20212A7FF43B
:1024400065AE628D92B24AB1626A12F8011B1961DF
:102450006262638D013B9BB2638557E608290DD00C
:1024600020290BD011F5803F08D0596821F4E06194
:1024700059601123236384F83E20B4E75A6822F49C
:10248000E0625A601A6842F400721A600023202247
:10249000236384F83D2094F83E2084F83E30402A9F
:1024A0002046A4D1FFF7B3FC30E6402D7FF42EAEDA
:1024B000B3E700BFEBFFFEFF1400010001010001C4
:1024C00059680E053FF522AE450600F0040140F1C3
:1024D0008680500540F18380002940F0838094F885
:1024E0003D20222A7FF412AEE06A628D92B2032A66
:1024F00014D91A69636A1A70636A01336362638D5F
:10250000013B9BB26385638D9BB2032B7FF4FEADD1
:102510002268536823F480635360F7E5E56A022D6F
:102520003FF473AF012A3FF670AF7B4A0B911268FC
:1025300046F2A811B2FBF1F202EB82020B920B9A67
:10254000013A0B920B99D1B9226C42F0200222641D
:102550005A6822F4E0625A601A69636A1A70636A00
:1025600001336362638D013B9BB26385202384F852
:102570003D30204684F83E10FEF7F7FFC6E51A68A6
:1025800012F40072DBD1196821F480611960596876
:1025900021F4E06159601969636A1970636A013353
:1025A0006362638D013B9BB26385202384F83D30D9
:1025B00094F83E3084F83E20402B04D1226320461C
:1025C000FFF77EFCA2E5082801D0202801D10023D6
:1025D00000E0122323632046FFF718FC96E500294C
:1025E0003FF494AD92057FF591ADE26A608D616A2A
:1025F00080B2042809D15A6822F480625A601B69AB
:102600000B70636A0133636223E7608D80B2032835
:102610000CD15868042A20F480605860EFD0022A58
:10262000EDD01A6822F480621A60E8E7608D80B20B
:102630000228E4D1042A33D007D8012A07D0022A7D
:102640002ED0186840F4007004E0102AF9D1186800
:1026500020F4806018601B690B70616A4B1C636218
:10266000638D013B9BB2638523681B694B70636A72
:10267000216801336362638D013B9BB263854B68C4
:1026800023F440734B60202384F83D3094F83E30AF
:10269000402B4FF0000384F83E3005D123638EE7D2
:1026A000186840F48060D5E7082A90D0202A8DE78A
:1026B000206C18B35869002587072FD596052DD5AE
:1026C000226C02B19D6994F83D2002F02802282A6C
:1026D00017D15A682F0622F480625A60C5F3800130
:1026E00054BFE268A269002381F00101C9B284F8F5
:1026F0003C3092B22046FEF7D9FE07E59D69586945
:10270000DAE700220C9259690C919B690C930C9B9F
:1027100084F83C20FAE400BF18000020C60640F10F
:10272000B180950540F1AE8094F83D505A6822F48E
:10273000E0625A6000220D925A690D921A6842F0C6
:1027400001021A600D9A1A6822F480621A605A68AF
:102750001005EDB220D505F0F702222A4AD1A06B70
:102760000268526892B26285628D92B21AB1226C8E
:1027700042F0040222645A6822F400625A60FFF7B1
:1027800089FA012808D0A06B794B0365FFF770FA2E
:1027900010B1A06B036D9847638D9BB213B3236890
:1027A0005A69510709D51A69636A1A70636A013355
:1027B0006362638D013B9BB2638523685A6952064D
:1027C00009D51A69636A1A70636A01336362638D9B
:1027D000013B9BB26385638D9BB21BB1236C43F0BD
:1027E00004032364236C13B320460FB0BDE8F0400C
:1027F000FFF7C8BB606B0268526892B26285628D57
:1028000092B21AB1226C42F0040222645A6822F495
:1028100000625A60FFF73EFA0128BDD0606B544B4E
:102820000365FFF725FA0028B6D0606BB2E72A2DC2
:1028300006D12363282384F83D302046FEF77FFE2F
:1028400094F83D30282B0CD14A4BE3622022002320
:102850002363204684F83D2084F83E30FEF75AFE7C
:1028600054E4236B222B02D0222D7FF44FAC0023A3
:102870002022236384F83D2084F83E302046FEF772
:102880005EFE43E401F0F701212900F0040535D193
:10289000070627D5560525D53DBB94F83D00628D2A
:1028A00092B2C0B2002A3FF431AC626A12F8015B06
:1028B0001D616262628D013A92B26285628D92B24E
:1028C000002A7FF423AC29287FF420AC5A6822F434
:1028D00080625A6028232163204684F83D30FEF749
:1028E00040FE13E4002D3FF411AC95057FF50EACCE
:1028F000628D92B2002A3FF409ACA5E5400627D5C7
:10290000510525D53DBB94F83D20618D89B2D2B2E9
:1029100000293FF4FBAB1969636A1970636A0133DC
:102920006362638D013B9BB26385638D9BB2002B19
:102930007FF4ECAB2A2A7FF4E9AB2268536823F4D6
:102940008063536022232363282384F83D3095E776
:10295000002D3FF4DBAB92057FF5D8AB628D92B2D0
:10296000002A3FF4D3AB1A69636A1A7049E600BFC4
:10297000C51E00080000FFFFF8B503685F695E68C8
:1029800090F83E2017F480750446D2B206D016F4B3
:1029900080751EBF6FF4807159610125B80506D599
:1029A000F10542BF6FF4007145F0020559617805E9
:1029B00036D5F10534D5608D94F83D10D4F830C08B
:1029C000202A80B2C9B25FD100285DD101F0F700A2
:1029D000212804D0282957D1BCF1210F54D194F8D3
:1029E0003D20E16A0829D2B201D020292AD1282A23
:1029F00028D12E4AE2625A6822F4E0625A606FF4EB
:102A000080625A611A6822F480621A6000232022D0
:102A10002363204684F83D2084F83E30FEF77AFD9B
:102A20003A053FD5F3053DD523686FF4006245F0C4
:102A300008055A61236C1D4325642046BDE8F84013
:102A4000FFF7A0BA212A1BD11849E16222630021B5
:102A5000202284F83D2084F83E105A6822F4E06277
:102A60005A606FF480625A611A6822F480621A60B8
:102A70005A69100648BF19612046FEF772FDCFE77C
:102A80006FF480625A61CBE76FF48061102A59615C
:102A900045F0040501D0402AC2D11A6842F4007200
:102AA0001A60BDE7002DC5D1F8BD00BF0000FFFFD3
:102AB0002DE9F341044640B30368DE0710D42368D0
:102AC0009D075BD42368190700F19D8023685A078E
:102AD00000F1BD80A369002B40F0248100202CE090
:102AE0008D4B9A6802F00C02042A07D09A6802F013
:102AF0000C02082A0BD15B68590208D5864B1B686B
:102B00009A03DCD56368002BD9D1012015E06368F6
:102B1000814DB3F5803F13D12B6843F480332B6094
:102B2000FEF79AFD7C4E054633689B03C7D4FEF73B
:102B300093FD401B6428F7D9032002B0BDE8F08163
:102B4000B3F5A02F04D12B6843F480232B60E3E777
:102B50002A6822F480322A602A6822F480222A60BD
:102B6000002BDDD1FEF778FD06462B689F03A6D526
:102B7000FEF772FD801B6428F7D9DDE7664B9A6883
:102B800012F00C0F07D09A6802F00C02082A11D13B
:102B90005B685D020ED4604A1368990702D5E3684A
:102BA000012BB2D11368216923F0F80343EAC10372
:102BB000136087E7E268594BB2B101221A60FEF751
:102BC0004BFD554D06462B689B0707D52B682269A0
:102BD00023F0F80343EAC2032B6073E7FEF73CFDE2
:102BE000801B0228EFD9A7E71A60FEF735FD4A4E91
:102BF000054633689F077FF565AFFEF72DFD401B47
:102C00000228F6D998E76269444B82B10122C3F8E1
:102C1000802EFEF721FD404E0546736F9B073FF562
:102C200055AFFEF719FD401B0228F6D984E7C3F81B
:102C3000802EFEF711FD384E0546736F9F077FF516
:102C400045AFFEF709FD401B0228F6D974E7324B69
:102C50001A6C12F0805228D101921A6C42F0805204
:102C60001A641B6C03F080530193019B01272C4DC8
:102C70002B68D8051BD5A368274D012B27D12B6FB7
:102C800043F001032B67FEF7E7FC234E054641F2B4
:102C90008838336F9A0739D5002F3FF41BAF1E4A8F
:102CA000136C23F08053136414E70027DFE72B68CD
:102CB00043F480732B60FEF7CFFC06462B68D905E2
:102CC000D9D4FEF7C9FC801B0228F7D934E7052BBD
:102CD00004D12B6F43F004032B67D0E72A6F22F057
:102CE00001022A672A6F22F004022A67002BCAD148
:102CF000FEF7B2FC41F2883806462B6F9B07CBD516
:102D0000FEF7AAFC801B4045F7D915E7FEF7A4FCA7
:102D1000401B4045BDD90FE7003802400000474244
:102D200000700040374DAA6802F00C02082A3ED01D
:102D3000022B354B4FF000021A662BD1FEF78CFCAC
:102D400006462B6899011FD4D4E907321343626AFF
:102D500043EA8213E26A43EA0263A26A5208013A32
:102D600043EA02436B60284B264D01221A66FEF7A8
:102D700073FC04462B689A013FF5B0AEFEF76CFC7D
:102D8000001B0228F6D9D7E6FEF766FC801B022856
:102D9000D7D9D1E6FEF760FC04462B689B017FF58E
:102DA0009DAEFEF759FC001B0228F6D9C4E6012BA4
:102DB0003FF4ABAE6B68E26903F4800191427FF4AB
:102DC000A4AE216A03F03F028A427FF49EAE616A9C
:102DD00047F6C0721A40B2EB811F7FF496AEA26A2A
:102DE000520803F44031013AB1EB024F7FF48DAE4B
:102DF000E26A03F07063B3EB026F14BF012000209E
:102E00009BE600BF0038024000004742134908B566
:102E10008B6803F00C03042B1CD0082B1CD14A68D0
:102E20004B68496813F4800314BF0D480D48C1F383
:102E3000881118BF002302F03F02A1FB0001FDF73B
:102E4000A5FE064B5B68C3F3014301335B00B0FB97
:102E5000F3F008BD0248FCE70248FAE700380240F8
:102E600000127A000024F4002DE9F0410D460446DA
:102E700010B90120BDE8F081434B1A6802F0070247
:102E80008A4228D321688F072DD4C80740D43E4BEF
:102E90001A6802F00702AA4265D8226851076BD46B
:102EA000130707D5394A2169936823F4604343EA3D
:102EB000C1039360FFF7AAFF344B354A9B68C3F305
:102EC0000313D35CD840334B1860334B1868FEF7BC
:102ED00079FB0020CEE7CAB21A701B6803F0070323
:102EE0008B42C6D1CEE7294B11F0040F1EBF9A6862
:102EF00042F4E0529A600E0742BF9A6842F4604280
:102F00009A609A68A06822F0F00202439A60BCE7D7
:102F100062681E4B012A1CD11B6813F4003FA8D025
:102F20001A4EB36823F003031343B360FEF794FB18
:102F300041F288380746B368626803F00C03B3EBCC
:102F4000820FA4D0FEF788FBC01B4045F3D90320B5
:102F500090E7911E01291B6802D813F0007FDEE77D
:102F600013F0020FDBE7EAB21A701B6803F00703E5
:102F7000AB427FF47EAF90E70449E0688B6823F4AE
:102F8000E05303438B608BE7003C02400038024073
:102F9000BC5E00081800002008000020044B054A11
:102FA0009B68C3F38223D35C034A1068D840704700
:102FB00000380240B45E000818000020044B054AA7
:102FC0009B68C3F34233D35C034A1068D840704710
:102FD00000380240B45E00081800002070477047B7
:102FE000036870B5DD681E69B10704460DD5AA07F0
:102FF0000BD56FF002021A61012202779B699B07D1
:1030000069D000F02FFC00232377710710D56A07E1
:103010000ED523686FF004021A61022222779B69A1
:1030200013F4407F20465CD000F01CFC0023237783
:1030300033070FD528070DD523686FF008021A61F2
:1030400004222277DB699907204650D000F00AFC61
:1030500000232377F20610D5EB060ED523686FF018
:1030600010021A6108222277DB6913F4407F2046A0
:1030700043D000F0F7FB00232377F00708D5E907DA
:1030800006D523686FF001021A61204600F0C7FBE5
:10309000320608D52B0606D523686FF080021A6128
:1030A000204600F032F8700608D5690606D5236878
:1030B0006FF040021A612046FFF791FFB20622D559
:1030C000AB0620D523686FF0200220461A61BDE8C8
:1030D000704000F019B800F0C3FB2046FFF77EFFF8
:1030E00091E700F0BDFB2046FFF778FF9EE700F078
:1030F000B7FB2046FFF772FFAAE700F0B1FB2046BE
:10310000FFF76CFFB7E770BD70477047026802F1C8
:103110000C0353E8003F23F490730C3242E8003173
:1031200002680029F2D102F1140353E8003F23F0B2
:10313000010302F1140C4CE800310029F3D1036BB8
:10314000012B0BD102F10C0353E8003F23F01003D5
:1031500002F10C0C4CE800310029F3D1202380F857
:1031600042300023036370470268C16838B51369B1
:1031700023F440530B431361054683680069D1680B
:10318000034368690343E86921F4164121F00C0107
:1031900003430B43D3605369A96923F440730B4382
:1031A00053611F4B9A4203D003F580639A4224D1A6
:1031B000FFF704FFEA691921B2F5004FD5E9004392
:1031C000A0FB01011CD1DA184FF0000545EB050307
:1031D000FDF7DCFC6422B0FBF2F102FB1103DB0023
:1031E0003233B3FBF2F303F007025B0002EB011290
:1031F00003F4F8731344A36038BDFFF7CFFED9E79B
:103200009A009B0FFDF7C2FC6422B0FBF2F102FBB7
:1032100011031B013233B3FBF2F303EB0113EAE7B3
:1032200000100140704710B5044648B390F8413093
:1032300003F0FF021BB980F84020FFF7F3FF22687C
:10324000242384F84130D36823F40053D36020460C
:10325000FFF78AFF23681A6922F490421A615A69BB
:1032600022F02A025A61DA6842F40052DA60002041
:103270002023606484F8413084F84230606310BDDC
:103280000120FCE710B5044668B390F8413003F024
:10329000FF021BB980F84020FFF7C4FF22682423F7
:1032A00084F84130D36823F40053D3602046FFF7FD
:1032B0005BFF23681A6922F490421A615A6922F06E
:1032C00022025A615A6942F008025A61DA6842F4ED
:1032D0000052DA6000202023606484F8413084F8D2
:1032E0004230606310BD0120FCE790F84130202B94
:1032F00010D189B182B1C284016282840168002345
:103300002122436480F84120CA6842F08002CA60EA
:1033100018467047022070470120704708B5806B3F
:103320000023C38500F0BEFF08BD704790F842300F
:10333000222B07B542D181680268836AB1F5805FAC
:103340003FD1016900293FD15268C2F3080223F836
:10335000022B8362C38D013B9BB2C385002B2DD111
:103360000268D16821F02001D160D16821F4807118
:10337000D160516921F001015161202280F8422081
:103380004363026B012A026828D1036302F10C0334
:1033900053E8003F23F0100302F10C0C4CE800311D
:1033A0000029F3D11368DB0605D501911368019359
:1033B00053680193019B818DFFF7B7FF03B05DF860
:1033C00004FB39B9016929B95268D2B21A70836A0B
:1033D0000133BEE7526802F07F02F7E700F05CFFBE
:1033E000ECE7000003681A6873B51607D9685D69D1
:1033F000044608D1960668D58D0666D502B0BDE8AC
:103400007040FFF793BF05F0010001F4907505438C
:103410005BD0D60705D5CD0542BF636C43F00103F1
:103420006364530704D518B1636C43F0020363640B
:10343000960704D518B1636C43F004036364150761
:1034400007D501F0200303431EBF636C43F008035C
:103450006364636C002B32D0920604D58B0602D5D0
:103460002046FFF763FF26687369626C03F0400330
:1034700002F0080253EA0205204622D0FFF746FE7A
:1034800073695E0618D5226802F1140353E8003F01
:1034900023F04003143242E800310029F3D1E06BFD
:1034A00050B1774B0365FEF7E3FB40B1E06B036D72
:1034B00002B0BDE870401847204600F0F3FE02B0AD
:1034C00070BD00F0EFFE6564F9E7206B012840F065
:1034D0009B80D50640F19880C80640F19580002277
:1034E00001921A6801925A680192019A5A69A18D53
:1034F000520656D5E06B0268526892B2002A47D055
:10350000914245D9E285C269B2F5807F36D003F198
:103510000C0252E8002F22F4807203F10C0040E804
:1035200000210029F3D103F1140252E8002F22F008
:10353000010203F1140040E800210029F3D103F156
:10354000140252E8002F22F0400203F1140040E878
:1035500000210029F3D1202284F84220216303F1C5
:103560000C0252E8002F22F0100203F10C0040E898
:1035700000210029F3D1E06BFEF73CFB02236363DB
:10358000E38DA18DC91A89B22046FFF7CEFE96E7DA
:10359000914294D1C369B3F5807F90D102236363D4
:1035A000F2E7E28DE08D80B292B2002887D0891ACE
:1035B00089B2002983D003F10C0252E8002F22F4D3
:1035C000907203F10C0545E800200028F3D103F1C7
:1035D000140252E8002F22F0010203F1140545E81D
:1035E00000200028F3D1202284F84220206303F138
:1035F0000C0252E8002F22F0100203F10C0545E8FE
:1036000000200028F3D1C9E7160628D50D0626D5D7
:1036100094F84120212A7FF452AFA168226AB1F5C3
:10362000805F17D12169A9B932F8021BC1F30801E3
:1036300059602262E28C013A92B2E284002A7FF45D
:103640003EAFDA6822F08002DA60DA6842F04002C7
:10365000DA6034E7511C216212785A60EAE75006BA
:103660007FF52DAF4A067FF52AAFDA6822F04002D7
:10367000DA60202384F84130204600F010FE1EE777
:103680001D33000890F84030012B11D0026824232C
:1036900080F84130D36823F00C0343F00803D36073
:1036A000202380F84130002380F8403018467047CE
:1036B0000220704790F84030012B11D0026824237B
:1036C00080F84130D36823F00C0343F00403D36047
:1036D000202380F84130002380F84030184670479E
:1036E0000220704790F8412090F842001043704744
:1036F000C2850023828502694364222380F8423018
:10370000816203681AB1DA6842F48072DA605A6939
:1037100042F001025A61DA6842F02002DA600020C9
:10372000704770B590F84260202E07D141B13AB190
:1037300000240463FFF7DCFF204670BD0220FCE795
:103740000120FAE710B5074C206810B10430FFF7EC
:1037500047FCA06920B1BDE810400430FFF740BC31
:1037600010BD00BF20040020034B186810B10430C6
:10377000FFF736BC704700BF20040020034B586899
:1037800010B10430FFF72CBC704700BF20040020AC
:10379000034B986810B10430FFF722BC704700BF9C
:1037A00020040020034BD86810B10430FFF718BC88
:1037B000704700BF20040020034B186910B104308B
:1037C000FFF70EBC704700BF20040020034B586970
:1037D00010B10430FFF704BC704700BF2004002084
:1037E000034BD86910B10430FFF7FABB704700BF34
:1037F00020040020826810B50AB902F03FFABDE843
:103800001040C368184708B500B9FEE700F0BAFBDE
:103810000068836E13B16030FFF7ECFF08BDFFF75F
:10382000F2BF10B500B9FEE7037F013B072B10D8AC
:10383000DFE803F004140F100F0F0F12012400F043
:10384000A1FB0068063400EB041083680BB1FFF79E
:10385000D1FF10BD0324F2E70424F0E70224EEE7D1
:10386000FFF7DFBFFFF7DDBF86B00023052853D881
:10387000DFE800F003111E2B38450093274B284842
:103880001A6B42F001021A631B6B03F001030093F1
:10389000009B06B070470193204B22481A6B42F000
:1038A00002021A631B6B03F002030193019BF0E712
:1038B00002931A4B1C481A6B42F004021A631B6BEA
:1038C00003F004030293029BE3E70393134B1748AF
:1038D0001A6B42F008021A631B6B03F00803039390
:1038E000039BD6E704930D4B11481A6B42F010026C
:1038F0001A631B6B03F010030493049BC9E7059341
:10390000064B0C481A6B42F080021A631B6B03F0E3
:1039100080030593059BBCE70020BAE7003802400E
:10392000000002400004024000080240000C024077
:1039300000100240001C024008B5044900F0EAFAF9
:10394000C0F3C430122800D9FEE708BDA45F000808
:10395000A0F58053013B022B00D9FEE76FF47F6393
:103960001844704702680D4B9A4282B00BD1002375
:1039700001930B4B5A6C42F480725A645B6C03F4F3
:1039800080730193019B074B1868C30403D4064955
:1039900002B000F085BA02B0704700BF00200140BD
:1039A000003802400C000020A45F0008084B0168AA
:1039B0005A6A42F480725A625A6A22F480725A62D7
:1039C000044A914202BF5A6C22F480725A647047D2
:1039D0000038024000200140F0B599B0044648226A
:1039E0000E4606A8002101F0E2FB1022002102A8E9
:1039F00001F0DDFB0023E204ADF80230019361D554
:103A000041F203039C425DD83A4B06932046FFF7F0
:103A10009FFF07270546082E65D00A2E66D0062E82
:103A20000CBF4FF0407300234FF48032CDE90723E1
:103A3000314A0023CDE90933CDE910238DF8303028
:103A40008DF838300F938DF84830169314938DF815
:103A500054302A4B012606A80B960D961C60FDF7E4
:103A600001FE00283AD1CDE9047002A906A8CDE9EB
:103A70000256FDF791FF002830D106A8FDF7B2FEEF
:103A800060BB0A2106A8FDF730FF38BB06A8FEF789
:103A900013F8830505D506A8FDF77AFF80B2ADF8C7
:103AA000020006A8FDF706FFC0B906A8FDF780FED4
:103AB000A0B9134A536823F440035360BDF80200D1
:103AC00080B20CE00F49204600F002FA01A90690EE
:103AD0002046FFF731FF069B054613B9002019B0B9
:103AE000F0BD012797E74FF000739DE74FF080731B
:103AF0009AE700BF002001400100000F0C000020E9
:103B000000230140A45F0008FDF7A6BD704708B57B
:103B1000FDF796FDFEF759F8FFF7F8FF08BD70476F
:103B200084B0114B00220192196C41F0805119644C
:103B3000196C01F08051019101990292596C41F484
:103B400080415964596C01F48041029102990392B9
:103B50001A6B42F480521A631B6B03F48053039375
:103B6000039B04B0704700BF003802400C4BD3F8F1
:103B7000FC20D2015EBFD3F8FC2042F08072C3F873
:103B8000FC20084B00225A601A6842F001021A60B9
:103B900000BF00BF00BF5868B0FA80F0400970470E
:103BA00000ED00E0001000E008B5FFF7B9FFFFF7F7
:103BB000DDFFFDF72BFDFFF7B2FF00F001FCBDE8D4
:103BC00008400148FEF706B8100000200023C0E9B5
:103BD0000033C0E9023370470023012803F10102DA
:103BE0000AD11422DBB25343054A181D10448168E0
:103BF00029B11A441369184740081346EDE7704786
:103C0000400400200120FEF749B80220FEF746B824
:103C10000420FEF743B80820FEF740B81020FEF756
:103C20003DB808B52020FEF739F84020FEF736F8F9
:103C30008020FEF733F84FF48070FEF72FF8BDE8D0
:103C400008404FF40070FEF729B838B506244FF449
:103C50008065A8B2FEF722F8013C4FEA4505F8D18D
:103C600038BD0000344A104608B5062300F8043B6E
:103C7000FFF7ACFF072302F118001375FFF7A6FF4B
:103C8000082302F12C0082F82830FFF79FFF092358
:103C900002F1400082F83C30FFF798FF0A2302F15E
:103CA000540082F850301721FFF790FF02F16800AE
:103CB00082F86410FFF78AFF02F17C0082F8781026
:103CC000FFF784FF02F1900082F88C10FFF77EFF6F
:103CD00002F1A40082F8A010FFF778FF02F1B8000B
:103CE00082F8B4102821FFF771FF02F1CC0082F8AE
:103CF000C810FFF76BFF02F1E00082F8DC10FFF75D
:103D000065FF02F1F40082F8F010FFF75FFF02F5A3
:103D1000847082F80411FFF759FF02F58E7082F863
:103D20001811FFF753FFBDE8084002F5987082F8BC
:103D30002C11FFF74BBF00BF4004002038B5054CE5
:103D4000A4F5A075143C201DFDF728FAAC42F9D16A
:103D500038BD00BF8005002030B591FAA1F391FA7B
:103D6000A1F1B3FA83F3C4685B000325B1FA81F1D2
:103D700005FA03F3490024EA03038A401A43C260A8
:103D800030BD0000F8B5471C06460D4600D1FEE7E1
:103D900000F00F02414BC0F3031053F82240FFF72D
:103DA00063FD94FAA4F3B3FA83F3876803225B00FC
:103DB00002FA03F394FAA4F2B2FA82F227EA0307B2
:103DC0005200032393403B4305F00701836003291E
:103DD00003D8DFE801F05F612C03FEE7032394FAC8
:103DE000A4F2B2FA82F206685200032707FA02F23E
:103DF00026EA020694FAA4F2B2FA82F25200934042
:103E0000013933430129036005D843682A074CBFB1
:103E10002343A3434360C5F30112012A02D0022ABF
:103E200018BF00222146BDE8F840FFF795BFC5F353
:103E300006227F2A01D10223D1E7360716D5230AAD
:103E400093FAA3F6B6FA86F6476A93FAA3F3B60096
:103E50004FF00F0CB3FA83F30CFA06F69B0027EA37
:103E6000060602FA03F333434362E4E794FAA4F349
:103E7000B3FA83F3066A9B000F2707FA03F326EAD7
:103E8000030694FAA4F3B3FA83F39B009A403243F7
:103E90000262D0E70023A2E70123A0E7745E0008D6
:103EA000431C06D17047834202D18968FFF76ABF7D
:103EB0000C310B685A1CF6D1FEE70B685A1C01D175
:103EC00000207047834201D1486870470C31F4E705
:103ED000431C01D0FFF7F1BF002070474B6813B9B6
:103EE0004FF0FF307047834201D1086870470C31B2
:103EF000F4E708B1FFF7F2BF4FF0FF307047034619
:103F00000868421C00D17047984201D18868704708
:103F10000C31F5E7431C01D0FFF7F1BF70470346B2
:103F20008B42084604D01BB100290CBF1846002064
:103F3000704700001049D1F8883043F47003C1F88D
:103F400088300E4B1A6842F001021A6000229A6013
:103F50001A6822F0847222F480321A60084A5A6089
:103F60001A6822F480221A604FF43F02DA604FF0A0
:103F700000638B60704700BF00ED00E00038024036
:103F800010300024043870472DE9F04F8B4685B07F
:103F900092469946044618B9002005B0BDE8F08F56
:103FA0006749406DFFF794FF66490646A06DFFF72D
:103FB0008FFF65490746E06DFFF78AFF63490546B5
:103FC000206EFFF785FF8046002EE5D0A36D0133FC
:103FD00001D0002FE0D0E36D013301D0002DDBD004
:103FE000236E013302D0B8F1000FD5D030463946E8
:103FF000FFF795FF0646206020B90146FFF78FFFC7
:104000000646206029463046FFF789FF414620607A
:10401000FFF785FF20600028BED04D4B984254D159
:1040200003F594335A6A42F010025A625A6A22F037
:1040300010025A6200220192596C41F01001596439
:104040005B6C03F010030193019B134625223C494E
:10405000606D84F8653084F86420FFF721FF1FB19C
:104060003849A06DFFF71CFF2DB13749E06DFFF710
:1040700017FF4FF48075B8F1000F05D03349206E5B
:1040800045F40075FFF70CFF94F86520314B94F967
:104090006400C4F80CA0261D43F822602368C4E91C
:1040A000013B0E9B0022C4E904390C23C4E9063508
:1040B00022620121FDF714FD3046002F3CD1FFF7AD
:1040C000E1F8B0FA80F0400967E7234B984217D136
:1040D00003F5FA331A6A42F400321A621A6A22F4B9
:1040E00000321A62002202921A6C42F400321A6400
:1040F0001B6C03F400330293029B26220123A6E7E4
:10410000164B98427FF448AF03F592335A6A42F057
:1041100020025A625A6A22F020025A620022039256
:104120005A6C42F020025A645B6C03F02003039344
:10413000039B472202238AE7FFF775F8C1E700BF18
:104140005C5F0008145F0008F05E0008CC5E0008A9
:104150000010014080050020004400400014014090
:1041600008B5074B90F8652053F82200FFF7BAFA1C
:1041700000F02200A0F122035842584108BD00BFC0
:104180008005002008B5074B90F8652053F8220001
:10419000FFF7A8FA00F02100A0F12103584258418E
:1041A00008BD00BF8005002070B50E46054610B959
:1041B0004FF0FF3070BDFFF7D3FF04460028F7D162
:1041C0002946012211F8663F337095F86500034BCC
:1041D00053F82000FFF7A5FA2046EBE78005002002
:1041E00038B50D460446B8B1FFF7BAFFA0B994F947
:1041F0006400E564FDF7B4FC94F86500074B04F136
:10420000660153F820000122FFF78BFA94F964004D
:10421000BDE83840FDF796BC38BD00BF80050020E2
:1042200038B515460446B8B1016590F96400FDF74C
:1042300097FCE36EB4F8761094F8650013FA81F1F8
:10424000064BAAB253F82000FFF74FF894F9640028
:10425000BDE83840FDF776BC38BD00BF80050020C2
:1042600048B1836D013306D190F86520024B53F8B5
:104270002200FFF707BA70478005002048B1836D20
:10428000013306D190F86520024B53F82200FFF766
:1042900011BA704780050020836C04381847C36C3E
:1042A0000438184730B5044650F804391D6815F035
:1042B000010585B012D0002200921A6800925B6856
:1042C0000093009BFFF74CFF40BB012204F1620109
:1042D000204605B0BDE83040FFF723BA196811F059
:1042E000020106D001951A6801925B680193019B57
:1042F000E8E71A6812F0040206D002911A680292E6
:104300005B680293029BDDE719680907DAD503921F
:104310001A6803925B680393039BD3E705B030BD33
:1043200008B52520FDF742FC024B1868BDE808409F
:10433000FFF758B88005002008B52620FDF736FCA9
:10434000034B586818B1BDE80840FFF74BB808BDEB
:104350008005002008B54720FDF728FC024B98682F
:10436000BDE80840FFF73EB8800500200A49034633
:10437000086810B50344EFF30882934205D9074B50
:104380000C221A604FF0FF3010BD054A054C121B7D
:104390009342F4D20B60F7E71C000020E4070020F2
:1043A0000080012000040000FEE70000024B1622FE
:1043B0001A604FF0FF307047E4070020012070477B
:1043C00010B594B01422002109A800F0F0FE1422C8
:1043D000002103A800F0EBFE1F4B00220192196C94
:1043E00041F0805119641B6C1C4903F08053019308
:1043F000019B02920B6823F4404343F400430B609B
:104400000B6803F440430293029B01211023082010
:10441000CDE90B13A823CDE9100302244FF0040CBF
:10442000072308A8CDE90E42CDE912C30894FEF790
:104430003FFB00B1FEE70F23CDE903344FF4805377
:10444000CDE906300590214603A8FEF70DFD00B129
:10445000FEE714B010BD00BF0038024000700040FD
:10446000B0F80831B0F80421981A00F03F00704706
:10447000B0F80831B0F804219BB293421ABFD0F8CB
:10448000FC30985C4FF0FF30704790F80631B0F880
:104490000A01C0B2834227BFC3F13F03C018C01A4C
:1044A00000F1FF30704707B503688DF807105B68AF
:1044B00001220DF10701984703B05DF804FB13B525
:1044C0000DF107010446FFF76FFE88B9B4F87430A8
:1044D000B4F87020013303F03F03934208D0B4F8DE
:1044E0007420A16E9DF8070092B28854A4F874302D
:1044F00002B010BDB0F87620816F11FA82F202F09E
:104500003F0210B5A0F87620B0F87610B0F872200F
:1045100089B28A421AD0B0F87640B0F87610A4B2C8
:104520004032121B544289B204F03F0402F03F02B1
:10453000C1F1400158BF62428A4228BF0A468267E1
:104540000349FFF76DFE4FF0FF3010BD0020FCE780
:10455000F54400082DE9F843036804469B68884643
:104560001646984701232374D4F8EC30B4F806714A
:1045700001338146C7F1400709D194F8113133B1B5
:10458000002384F8113104F19400FFF769FE2368D9
:1045900020469B6898470028F9D03546BD4225D86B
:1045A0004D4523D8B4F80631D4F800015A19402AF1
:1045B000184430D82A46414600F04EFE2F46B4F843
:1045C00006311D4405F03F05A4F8065104F1940599
:1045D0002846FFF7D7FD30B91649C4F80C713A46A2
:1045E0002846FFF71DFE3046BDE8F8834F45236897
:1045F00028BF4F463A4641465B68204698472368A5
:1046000020469B689847ED1BB844B4F80671814674
:10461000C7F14007C2E7C3F140073A46414600F000
:104620001BFED4F80001EA1B08EB070100F014FEA2
:10463000C5E700BFF5440008C0F8F030009BC0F8A3
:10464000F430914208BF4FF0FF3100F11403C0E98C
:104650003A21C0F8FC3000F154020023A0F80831E0
:10466000C0E94023A0F80A317047000037B54FF089
:10467000000C4FF47A75C0E901C5069C034D056036
:104680000094FFF7D9FF03B030BD00BF9061000870
:10469000037C70B504460D46A3B1FCF7DDFF06466A
:1046A000B4F80621B4F80A319BB29A420AD0002D20
:1046B000F8D0FCF7D1FF801B8542F1D8B4F80A315D
:1046C000A4F8063170BD0021FFF7E2BFCBB2332B57
:1046D00008D80E4A52F8233001F4E0611943C0F8BB
:1046E000EC10704701F0C002C02A0CD1CF2B0AD8C1
:1046F000074B01F03F0201F4E06153F82220034B25
:1047000053F82230EAE74FF0FF31E8E7B0600008E5
:1047100070600008CBB2332B08D80E4A52F8233011
:1047200001F4E0611943C0F8E810704701F0C002DD
:10473000C02A0CD1CF2B0AD8074B01F03F0201F45D
:10474000E06153F82220034B53F82230EAE74FF0A0
:10475000FF31E8E7B06000087060000873B54FF4FF
:104760007A7316460022C0E901231D4B03604FF007
:10477000FF33C0F8EC301B4B984204460D4615D170
:10478000CD21FFF7A3FFCE21FFF7C4FF012E4FF08D
:10479000FF3308BFC4F8EC3000932046D4E93A2137
:1047A0004FF0FF33FFF748FF02B070BD0E4B0F49CB
:1047B0009A6B0F4B53F82200FFF78AFB854202D118
:1047C000CD212046DDE70B492846FFF792FB07493C
:1047D000C4F8EC002846FFF78CFBC4F8E800D5E7E6
:1047E000906100088C050020706000085C5F000884
:1047F000B0600008145F0008D0F8EC30013310B549
:1048000004460ED10368DB68984794F8113143B928
:10481000012384F8113104F19400BDE81040FFF742
:104820002DBD10BD7FB502F00703023BDBB2042BA8
:10483000144680F8122198BF204AC0F8141198BF7E
:10484000D25C04F0300388BF0022302B054607D12C
:1048500001324FF4C063082A09D0092A24D0FEE7A8
:1048600014F0200325D001324FF48063F3E70022D7
:10487000E87C0390A87C0290C4F3C004687C01909B
:1048800005F19406640300943046FFF77DFB85F83C
:10489000100188B12846FFF7AFFF0949304604B040
:1048A000BDE87040FFF79CBC4FF48052E0E71A4629
:1048B000DEE7082AFBD0D2E704B070BD80610008B3
:1048C000BF44000810B50446FFF796FFB4F808216E
:1048D000B4F8043192B29A421FBFD4F8FC20D05CE5
:1048E000013303F03F0314BFA4F804314FF0FF304D
:1048F00010BD0000024903480022FFF72FBF00BF90
:10490000004400408C05002070B505460C46084662
:1049100049B1FBF745FC2B680246214628465B68F7
:10492000BDE87040184770BD08B5FFF7EDFF08BD42
:1049300003681B681847000008B50249FFF7E4FF49
:1049400008BD00BFEA5D000838B50546FFF7DCFF8B
:1049500004462846FFF7F0FF204438BDFFF7F4BFB8
:1049600030B58BB00023012A0C468DF8243098BF57
:104970000A2209A92546B4FBF2F404FB125303F002
:10498000FF03092B94BF30333733DBB2AA4201F85F
:10499000013DEFD9FFF7B8FF0BB030BD2DE9F04175
:1049A00007460E4614462AB90368BDE8F0411B6865
:1049B000C9B218470A2A05D1002905DBBDE8F04134
:1049C000FFF7CEBFD2B2F9E72D21FFF7B1FF2246A4
:1049D000054671423846FFF7C3FF2844BDE8F08121
:1049E00038B50546FFF7DAFF04462846FFF7A4FF6F
:1049F000204438BD70B5B4EE400AF1EE10FA2DED4A
:104A0000048B0646B0EE408A0D4607D73449FFF7BF
:104A10007BFF0446BDEC048B204670BD9FED317AD0
:104A2000F0EEC07AF4EE477AF1EE10FA01DD2E498D
:104A3000EDE7DFED2E7AB4EEE70AF1EE10FA02DDD3
:104A40002B493046E3E7DFED2B7AB4EEE70AF1EECF
:104A500010FAF5D4B5EEC00AF1EE10FA39D52D21D1
:104A6000FFF766FFB1EE488A04460023F6EE007AAF
:104A7000B2EE047ADAB295422DD838EE278A0A22AD
:104A8000FCEEC88A304618EE901AFFF769FF04441E
:104A9000002DBFD02E213046FFF74AFFF8EE688A7E
:104AA000044438EE688AB2EE049A002DB2D028EEA3
:104AB000098A0A22FCEEC88A304618EE901AFFF7DF
:104AC0004FFFF8EE688A013D38EE688A0444EDB283
:104AD000EBE70024C9E7C7EE877A0133CAE700BFD6
:104AE000ED5D0008FFFF7F7FF15D0008FFFF7F4F56
:104AF000F55D0008FFFF7FCF08B5C9B2FFF77AFF69
:104B000008BD10B5044600F0DBF9E06023682046DC
:104B10005B699847002808DA00F0D2F9E368C01A08
:104B2000A3689842F2D34FF0FF3010BDF8B50746A6
:104B30000D468E180C46B44201D1601BF8BD3846B4
:104B4000FFF7DFFF431CF8D004F8010BF3E72DE972
:104B5000F0410746884616461D4673B10024384684
:104B6000FFF7CFFF431C05D0404503D0305501343B
:104B7000A542F4D12046BDE8F0811C46FAE70000CA
:104B80002DE9F04F59EC108BA7B005460F4614469F
:104B90000023002240464946FBF788FF064618B12D
:104BA00009F100439946012647494FF0000A0020C9
:104BB000574571DC02460B4640464946FBF74EFB23
:104BC00002460B46CDE90223FBF7C0FF8246002FC9
:104BD0006BD0DFF80C914FF0000B4FF0000840460F
:104BE00049463A4B0022FBF7EFFC0BF1010B5F4506
:104BF00080468946F3DC5046FBF76CFC02460B46C8
:104C0000DDE90201FBF728FB42464B46FBF7DCFCE3
:104C1000FBF774FF3B4600905246002E43D02C49D0
:104C2000204600F089FA8122002105A800F0BFFA91
:104C3000002D2046BABF6D4201260026FBF7B0FAD0
:104C4000A84225D28022202105A800F0B0FA2046F3
:104C5000FBF7A6FA2D1A05F198030DEB03050023C7
:104C600005F8843C56BB2046FBF79AFA013000F069
:104C700039F92146054600F0E7FA05A9204600F07B
:104C8000E3FA2946204600F09AFA284600F032F965
:104C9000204627B0BDE8F08F0C4B0022FBF7BEFD8D
:104CA0000AF1010A84E70B49BAE7024626B10A492C
:104CB000204600F041FAB6E70849F9E705A9204681
:104CC00000F07DFAE4E700BF0000E03F0000244070
:104CD000F95D0008FA5D0008045E0008055E000842
:104CE0000000F03F08B50320FCF7E8FEBDE80840EF
:104CF00000F0F6B808B5AFF30080FCF71BF9FCF73D
:104D0000F1F900F0DFF8FAE710F0F00130B50246F3
:104D100018D1C4B200F4E0632F4850F824000343D4
:104D2000C0B2332830D903F0C004C02C01D1CF2841
:104D300033D9A2F1D003022B94BF02F631704FF0A9
:104D4000FF3029E000F0C003C02BF2D1C4B2CF2C59
:104D5000EFD800F03F0500F4E0631F4850F825004D
:104D60000343C0B233280FD903F0C003C02BE0D1F6
:104D7000CF2CDED8184802F03F0402F4E06350F86C
:104D800024000343C0B2D2E7144951F8200003F4D1
:104D9000E0631843431CCCD030BD03F03F030E4802
:104DA00050F823400D4B53F8243041B9D1B250F89C
:104DB0002110114301F4E06143EA0100EAE702F047
:104DC000C001C02905D1D1B2CF2902D802F03F01DC
:104DD000EDE74FF4E061EFE770600008B0600008B5
:104DE000DFF834D0FFF7A6F80C480D490D4A002330
:104DF00002E0D458C4500433C4188C42F9D30A4A90
:104E00000A4C002301E013600432A242FBD300F0FD
:104E1000F5F9FFF76FFF70470080012000000020C8
:104E200078000020E061000878000020EC070020F6
:104E3000FEE791420FD008D9891A01238B4098428E
:104E400008D30130C8400138704720B10130521AF0
:104E50009040F8E700207047431E1F2B0ED80C2807
:104E60000DDC06280DDD08280DDD0B28B4BF0A2354
:104E70000C23064A1060064A13607047FEE70C23B5
:104E8000F7E70623F5E70823F3E700BF2400002037
:104E90002000002010B5FFF737FF431C0AD0064C56
:104EA0002168FEF799FD054B21681A68BDE810409E
:104EB000FFF7BFBF002010BD20000020240000200D
:104EC000FEF722BE08B5044B2BB10448FFF7C8FA21
:104ED00008B1AFF3008008BD000000008C05002081
:104EE000FEF762BE024B0146186800F02DB800BF05
:104EF00028000020024B0146186800F0BBB900BF33
:104F00002800002070B50F4E0C463168054611B9D7
:104F100000F064F930602146284600F05FF9431C38
:104F200003D14FF0FF34204670BDC41C24F00304AD
:104F3000A042F8D0211A284600F050F90130F2D1F1
:104F4000EFE700BFA40600202DE9F843CD1C25F0B3
:104F5000030508350C2D38BF0C25002D064601DB56
:104F6000A94204D90C2333600020BDE8F883DFF8A0
:104F7000D48000F069F8D8F800301C4644BB2946BC
:104F80003046FFF7BFFF431C044658D1D8F8004015
:104F90002746002F43D1002C4BD02368394630469A
:104FA00004EB030900F01AF9814542D121686D1A1A
:104FB00029463046FFF7A6FF01303AD023682B443C
:104FC0002360D8F800305A6862BBC8F800700FE060
:104FD0002268521B20D40B2A17D96119A3422560DD
:104FE00018BF5960636808BFC8F8001062514B6071
:104FF000304600F02FF804F10B00231D20F00700CD
:10500000C21A1CBF1B1AA350AFE76268A3420CBFB1
:10501000C8F800205A60EBE723466468AEE73C46D8
:105020007F68B6E71A465B68A342FBD10023536052
:10503000DEE70C233360304600F00CF894E705609F
:10504000D6E700BFA8060020014800F0FBB800BF6B
:10505000E8070020014800F0F6B800BFE80700208C
:10506000024B0A460146186800F002B828000020EA
:105070002DE9F041074614460D4621B9BDE8F0413F
:105080001146FFF761BF2AB900F0F4F8254628461B
:10509000BDE8F08100F038F98442064602D8B4EB4E
:1050A000500FF4D821463846FFF74EFF804608B926
:1050B0004546ECE7B4422246294628BF324600F076
:1050C000CBF82946384600F0D5F8F1E70CB430B5F6
:1050D000184B0C1E1D689DB008DA8B232B604FF017
:1050E000FF301DB0BDE8304002B070474FF402738E
:1050F000ADF814304FF000031B9314BF04F1FF33DD
:105100002346049307934FF6FF7302900690ADF881
:105110001630209A21AB02A92846019300F05CF9D1
:10512000431CBCBF8B232B60002CDAD0029B0022D7
:105130001A70D6E7280000200EB410B59DB01FAB42
:10514000029006906FF000410A48079104910A49C5
:1051500053F8042B0591002402A9006801931B94C5
:1051600000F03AF9029B1C701DB0BDE8104003B07E
:10517000704700BF280000200802FFFF884210B5DA
:1051800001EB020402D98442234607D8431EA14200
:1051900007D011F8012B03F8012FF8E702448242EF
:1051A00000D110BD13F8011D02F8011DF7E70244FC
:1051B0000346934200D1704703F8011BF9E710B58D
:1051C0000246147813460132002CFAD1013B11F843
:1051D000012B03F8012F002AF9D110BD38B5064D77
:1051E0000023044608462B60FFF7C0F8431C02D199
:1051F0002B6803B1236038BDE407002070B50D4B68
:105200000D4D5B1B9C100026A64209D100F03AFD13
:105210000A4D0B4B5B1B9C100026A64205D170BDAE
:1052200055F8043B98470136EEE755F8043B98479C
:105230000136F2E7BC610008BC610008BC610008EF
:10524000D461000870477047034611F8012B03F83A
:10525000012B002AF9D170470A44914200F1FF3333
:1052600000D1704710B511F8014B03F8014F91427E
:10527000F9D110BD38B50546002941D051F8043C9C
:105280000C1F002BB8BFE418FFF7DEFE1D4A1368A1
:1052900033B9636014602846BDE83840FFF7DABED2
:1052A000A34208D9206821188B4201BF19685B68A6
:1052B00009182160EDE71A465B680BB1A342FAD9E1
:1052C00011685018A0420BD1206801445018834245
:1052D0001160E0D118685B68536008441060DAE739
:1052E00002D90C232B60D6E7206821188B4204BF1B
:1052F00019685B68636004BF091821605460CAE7DD
:1053000038BD00BFA806002051F8043C181F002B30
:10531000BCBF0B58C01870472DE9F0478E681F4678
:10532000BE4282460C469046334653D8B1F90C0033
:1053300010F4906F2BD065692368096905EB45056A
:10534000A3EB010905EBD5757B1C6D104B44AB42FB
:105350002A4684BF1D462A46430527D51146504696
:10536000FFF7F2FD064658B321694A46FFF774FF7E
:10537000A38923F4906343F08003A38126616561D0
:105380004E44A5EB09052660A5603E463B461F46F8
:1053900020683A464146FFF7F1FEA3689B1BA360D5
:1053A00023683B4423600020BDE8F0875046FFF7A8
:1053B0005FFE06460028E1D121695046FFF75AFFFB
:1053C0000C23CAF80030A38943F04003A3814FF0B7
:1053D000FF30E9E73E46DBE72DE9F04F98468B8941
:1053E0001B069DB007460D46144610D50B6973B9D0
:1053F0004021FFF7A9FD2860286130B90C233B60EC
:105400004FF0FF301DB0BDE8F08F40236B610023EB
:10541000099320238DF82930CDF80C803023DFF854
:105420009C818DF82A304FF0010923469A4613F8E3
:10543000012B0AB1252AF9D1BAEB040B0BD05B463C
:10544000224629463846FFF767FF013000F0A78063
:10545000099A5A4409929AF80030002B00F09F8074
:1054600000234FF0FF32CDE905230AF1010A04932E
:1054700007938DF853301A935446052214F8011BF4
:105480004E48FAF795FE049AD8B9D00644BF2023B7
:105490008DF85330110744BF2B238DF853309AF801
:1054A00000302A2B15D0079A544600204FF00A0CE2
:1054B000214611F8013B303B092B4BD9B0B1079283
:1054C00014E0A0EB080309FA03F313430493A24684
:1054D000D2E7039B191D1B680391002BBBBF5B42E6
:1054E00042F0020207930793B8BF049223782E2B51
:1054F0000AD163782A2B32D1039B1A1D1B680392B1
:1055000043EAE37302340593DFF8C0A02178032255
:105510005046FAF74DFE38B1049BA0EB0A0040223A
:10552000824013430134049314F8011B24488DF87E
:1055300028100622FAF73CFE002836D0214B1BBB70
:10554000039B073323F0070308330393099B33447A
:1055500009936AE70CFB02320C460120A8E70023FE
:105560000134059319464FF00A0C204610F8012B20
:10557000303A092A03D9002BC6D00591C4E70CFBA9
:10558000012104460123F0E703AB00932A460E4BAA
:1055900004A93846AFF30080421C0646D6D1AB8939
:1055A0005B063FF52DAF09982CE703AB00932A4625
:1055B000054B04A9384600F079F8EDE7095E0008CC
:1055C000135E000800000000195300080F5E000879
:1055D0002DE9F047164698468A680B69DDF8209059
:1055E0009342B8BF1346336091F8432007460C46F8
:1055F0000AB1013333602368990642BF336802332E
:105600003360256815F0060506D104F1190AE36830
:1056100032689B1AAB4226DC94F843302268003B88
:1056200018BF012392062BD404F1430241463846A9
:10563000C84701301ED02368226903F00603042BFB
:1056400002BFE5683368ED1AA3680CBF25EAE5756B
:1056500000259342C4BF9B1AED1800261A34B542A8
:105660001AD1002008E00123524641463846C84777
:10567000013003D14FF0FF30BDE8F0870135C6E7B8
:10568000E1185A1C302081F84300224494F8451058
:1056900082F843100233C7E70123224641463846C9
:1056A000C8470130E6D00136D9E700002DE9FF47B1
:1056B0000F7E0C9E782F914680460C469A4601F14B
:1056C000430207D8622F0AD8002F00F0D280582F4B
:1056D00000F0B78004F1420684F842703AE0A7F186
:1056E0006303152BF6D801A151F823F045570008A4
:1056F00059570008D5560008D5560008D556000859
:10570000D556000859570008D5560008D556000848
:10571000D5560008D5560008595800088357000888
:105720000F580008D5560008D55600087B580008C9
:10573000D556000883570008D5560008D5560008EE
:105740001758000833681A1D1B68326004F14206BE
:1057500084F8423001239DE033682068191D3160D0
:10576000060601D51D6803E04506FBD5B3F90050D8
:10577000002D03DA2D236D4284F8433059480A2363
:1057800010E021683368080653F8045B02D4490628
:1057900048BFADB26F2F5348336059D10823002161
:1057A00084F843106668A660002E05DB21682E434E
:1057B00021F0040121604DD01646B5FBF3F103FB47
:1057C0001157C75D06F8017D2F46BB420D46F4D93F
:1057D000082B0BD12368DF0708D52369616899423C
:1057E000DEBF302306F8013C06F1FF36921B226132
:1057F000CDF800A04B4603AA21464046FFF7E8FE3D
:1058000001304CD14FF0FF3004B0BDE8F087236881
:1058100043F0200323603448782784F845702368D8
:1058200031681F0651F8045B02D45F0648BFADB271
:105830003160D90744BF43F0200323601DB110231A
:10584000ADE72848E9E7236823F020032360F6E763
:105850000A23A4E71646BBE7336825686169181D6B
:1058600030602E061B6801D5196002E06806FBD582
:105870001980002323611646BAE733681A1D326087
:105880001E68626800213046FAF792FC08B1801B5E
:10589000606063682361002384F84330A8E72369CC
:1058A000324649464046D0470130ABD023689B077B
:1058B00013D4E068039B9842B8BF1846A4E70123BD
:1058C000324649464046D04701309BD00135E36817
:1058D00003995B1AAB42F2DCEBE7002504F11906F1
:1058E000F5E700BF1A5E00082B5E000808B5062029
:1058F00000F02CF80120FEF757FD1F2938B50546AA
:105900000C4604D9162303604FF0FF3038BDC26B3C
:1059100012B152F821304BB9284600F031F8224636
:1059200001462846BDE8384000F018B8012B0AD0DF
:10593000591C03D1162303600120E7E7002142F838
:105940002410204698470020E0E70000024B014663
:105950001868FFF7D2BF00BF2800002038B5074DF8
:1059600000230446084611462B60FEF71FFD431C2A
:1059700002D12B6803B1236038BD00BFE4070020CB
:10598000FEF71CBD2DE9F047089D0F4604468C46E6
:10599000002B48D18A42164661D9B2FA82F34BB144
:1059A000C3F1200201FA03FC20FA02F29E4042EA0F
:1059B0000C0C9C404FEA164EB7B2BCFBFEF1220C19
:1059C0000EFB11CC42EA0C4201FB07F0904209D9D0
:1059D000B21801F1FF3C80F0EE80904240F2EB8083
:1059E00002393244121AA4B2B2FBFEF00EFB1022AE
:1059F00044EA024400FB07F7A74209D9341900F131
:105A0000FF3280F0DA80A74240F2D7803444023877
:105A100040EA0140E41B00211DB1DC400023C5E940
:105A20000043BDE8F0878B4206D90DB1C5E90001FE
:105A300000210846BDE8F087B3FA83F1002948D178
:105A4000BB4202D3824200F20781841A67EB030251
:105A500001209446002DE4D0C5E9004CE1E7002A7E
:105A600000F09280B2FA82F3002B40F0A8808A1AEC
:105A70004FEA164E1FFA86FC0121200CB2FBFEF7FE
:105A80000EFB172240EA02420CFB07F0904207D9B6
:105A9000B21807F1FF3802D2904200F2E280474686
:105AA000121AA4B2B2FBFEF00EFB102244EA02442A
:105AB0000CFB00FCA44507D9341900F1FF3202D2D7
:105AC000A44500F2CB801046A4EB0C0440EA07404A
:105AD000A2E7C1F120068B4022FA06FC4CEA030C37
